{
  "_format": "hh-sol-artifact-1",
  "contractName": "YellowKissNFT",
  "sourceName": "contracts/YellowKissNFT.sol",
  "abi": [
    {
      "inputs": [
        {
          "internalType": "string",
          "name": "tokenUri",
          "type": "string"
        }
      ],
      "stateMutability": "nonpayable",
      "type": "constructor"
    },
    {
      "inputs": [
        {
          "internalType": "address",
          "name": "sender",
          "type": "address"
        },
        {
          "internalType": "uint256",
          "name": "tokenId",
          "type": "uint256"
        },
        {
          "internalType": "address",
          "name": "owner",
          "type": "address"
        }
      ],
      "name": "ERC721IncorrectOwner",
      "type": "error"
    },
    {
      "inputs": [
        {
          "internalType": "address",
          "name": "operator",
          "type": "address"
        },
        {
          "internalType": "uint256",
          "name": "tokenId",
          "type": "uint256"
        }
      ],
      "name": "ERC721InsufficientApproval",
      "type": "error"
    },
    {
      "inputs": [
        {
          "internalType": "address",
          "name": "approver",
          "type": "address"
        }
      ],
      "name": "ERC721InvalidApprover",
      "type": "error"
    },
    {
      "inputs": [
        {
          "internalType": "address",
          "name": "operator",
          "type": "address"
        }
      ],
      "name": "ERC721InvalidOperator",
      "type": "error"
    },
    {
      "inputs": [
        {
          "internalType": "address",
          "name": "owner",
          "type": "address"
        }
      ],
      "name": "ERC721InvalidOwner",
      "type": "error"
    },
    {
      "inputs": [
        {
          "internalType": "address",
          "name": "receiver",
          "type": "address"
        }
      ],
      "name": "ERC721InvalidReceiver",
      "type": "error"
    },
    {
      "inputs": [
        {
          "internalType": "address",
          "name": "sender",
          "type": "address"
        }
      ],
      "name": "ERC721InvalidSender",
      "type": "error"
    },
    {
      "inputs": [
        {
          "internalType": "uint256",
          "name": "tokenId",
          "type": "uint256"
        }
      ],
      "name": "ERC721NonexistentToken",
      "type": "error"
    },
    {
      "inputs": [],
      "name": "YellowKissNFT__AlreadyInitialized",
      "type": "error"
    },
    {
      "anonymous": false,
      "inputs": [
        {
          "indexed": true,
          "internalType": "address",
          "name": "owner",
          "type": "address"
        },
        {
          "indexed": true,
          "internalType": "address",
          "name": "approved",
          "type": "address"
        },
        {
          "indexed": true,
          "internalType": "uint256",
          "name": "tokenId",
          "type": "uint256"
        }
      ],
      "name": "Approval",
      "type": "event"
    },
    {
      "anonymous": false,
      "inputs": [
        {
          "indexed": true,
          "internalType": "address",
          "name": "owner",
          "type": "address"
        },
        {
          "indexed": true,
          "internalType": "address",
          "name": "operator",
          "type": "address"
        },
        {
          "indexed": false,
          "internalType": "bool",
          "name": "approved",
          "type": "bool"
        }
      ],
      "name": "ApprovalForAll",
      "type": "event"
    },
    {
      "anonymous": false,
      "inputs": [
        {
          "indexed": true,
          "internalType": "address",
          "name": "from",
          "type": "address"
        },
        {
          "indexed": true,
          "internalType": "address",
          "name": "to",
          "type": "address"
        },
        {
          "indexed": true,
          "internalType": "uint256",
          "name": "tokenId",
          "type": "uint256"
        }
      ],
      "name": "Transfer",
      "type": "event"
    },
    {
      "inputs": [
        {
          "internalType": "address",
          "name": "to",
          "type": "address"
        },
        {
          "internalType": "uint256",
          "name": "tokenId",
          "type": "uint256"
        }
      ],
      "name": "approve",
      "outputs": [],
      "stateMutability": "nonpayable",
      "type": "function"
    },
    {
      "inputs": [
        {
          "internalType": "address",
          "name": "owner",
          "type": "address"
        }
      ],
      "name": "balanceOf",
      "outputs": [
        {
          "internalType": "uint256",
          "name": "",
          "type": "uint256"
        }
      ],
      "stateMutability": "view",
      "type": "function"
    },
    {
      "inputs": [
        {
          "internalType": "uint256",
          "name": "tokenId",
          "type": "uint256"
        }
      ],
      "name": "getApproved",
      "outputs": [
        {
          "internalType": "address",
          "name": "",
          "type": "address"
        }
      ],
      "stateMutability": "view",
      "type": "function"
    },
    {
      "inputs": [],
      "name": "getTokenCounter",
      "outputs": [
        {
          "internalType": "uint256",
          "name": "",
          "type": "uint256"
        }
      ],
      "stateMutability": "view",
      "type": "function"
    },
    {
      "inputs": [
        {
          "internalType": "address",
          "name": "owner",
          "type": "address"
        },
        {
          "internalType": "address",
          "name": "operator",
          "type": "address"
        }
      ],
      "name": "isApprovedForAll",
      "outputs": [
        {
          "internalType": "bool",
          "name": "",
          "type": "bool"
        }
      ],
      "stateMutability": "view",
      "type": "function"
    },
    {
      "inputs": [],
      "name": "mintNFT",
      "outputs": [
        {
          "internalType": "uint256",
          "name": "",
          "type": "uint256"
        }
      ],
      "stateMutability": "nonpayable",
      "type": "function"
    },
    {
      "inputs": [],
      "name": "name",
      "outputs": [
        {
          "internalType": "string",
          "name": "",
          "type": "string"
        }
      ],
      "stateMutability": "view",
      "type": "function"
    },
    {
      "inputs": [
        {
          "internalType": "uint256",
          "name": "tokenId",
          "type": "uint256"
        }
      ],
      "name": "ownerOf",
      "outputs": [
        {
          "internalType": "address",
          "name": "",
          "type": "address"
        }
      ],
      "stateMutability": "view",
      "type": "function"
    },
    {
      "inputs": [
        {
          "internalType": "address",
          "name": "from",
          "type": "address"
        },
        {
          "internalType": "address",
          "name": "to",
          "type": "address"
        },
        {
          "internalType": "uint256",
          "name": "tokenId",
          "type": "uint256"
        }
      ],
      "name": "safeTransferFrom",
      "outputs": [],
      "stateMutability": "nonpayable",
      "type": "function"
    },
    {
      "inputs": [
        {
          "internalType": "address",
          "name": "from",
          "type": "address"
        },
        {
          "internalType": "address",
          "name": "to",
          "type": "address"
        },
        {
          "internalType": "uint256",
          "name": "tokenId",
          "type": "uint256"
        },
        {
          "internalType": "bytes",
          "name": "data",
          "type": "bytes"
        }
      ],
      "name": "safeTransferFrom",
      "outputs": [],
      "stateMutability": "nonpayable",
      "type": "function"
    },
    {
      "inputs": [
        {
          "internalType": "address",
          "name": "operator",
          "type": "address"
        },
        {
          "internalType": "bool",
          "name": "approved",
          "type": "bool"
        }
      ],
      "name": "setApprovalForAll",
      "outputs": [],
      "stateMutability": "nonpayable",
      "type": "function"
    },
    {
      "inputs": [
        {
          "internalType": "bytes4",
          "name": "interfaceId",
          "type": "bytes4"
        }
      ],
      "name": "supportsInterface",
      "outputs": [
        {
          "internalType": "bool",
          "name": "",
          "type": "bool"
        }
      ],
      "stateMutability": "view",
      "type": "function"
    },
    {
      "inputs": [],
      "name": "symbol",
      "outputs": [
        {
          "internalType": "string",
          "name": "",
          "type": "string"
        }
      ],
      "stateMutability": "view",
      "type": "function"
    },
    {
      "inputs": [
        {
          "internalType": "uint256",
          "name": "",
          "type": "uint256"
        }
      ],
      "name": "tokenURI",
      "outputs": [
        {
          "internalType": "string",
          "name": "",
          "type": "string"
        }
      ],
      "stateMutability": "view",
      "type": "function"
    },
    {
      "inputs": [
        {
          "internalType": "address",
          "name": "from",
          "type": "address"
        },
        {
          "internalType": "address",
          "name": "to",
          "type": "address"
        },
        {
          "internalType": "uint256",
          "name": "tokenId",
          "type": "uint256"
        }
      ],
      "name": "transferFrom",
      "outputs": [],
      "stateMutability": "nonpayable",
      "type": "function"
    }
  ],
  "bytecode": "0x60806040523480156200001157600080fd5b50604051620022ab380380620022ab8339818101604052810190620000379190620002f4565b6040518060400160405280600d81526020017f59656c6c6f774b6973734e4654000000000000000000000000000000000000008152506040518060400160405280600581526020017f594b4e46540000000000000000000000000000000000000000000000000000008152508160009081620000b4919062000590565b508060019081620000c6919062000590565b5050506000600681905550620000e281620000e960201b60201c565b5062000677565b600860009054906101000a900460ff161562000131576040517f0838d8c400000000000000000000000000000000000000000000000000000000815260040160405180910390fd5b806007908162000142919062000590565b506001600860006101000a81548160ff02191690831515021790555050565b6000604051905090565b600080fd5b600080fd5b600080fd5b600080fd5b6000601f19601f8301169050919050565b7f4e487b7100000000000000000000000000000000000000000000000000000000600052604160045260246000fd5b620001ca826200017f565b810181811067ffffffffffffffff82111715620001ec57620001eb62000190565b5b80604052505050565b60006200020162000161565b90506200020f8282620001bf565b919050565b600067ffffffffffffffff82111562000232576200023162000190565b5b6200023d826200017f565b9050602081019050919050565b60005b838110156200026a5780820151818401526020810190506200024d565b60008484015250505050565b60006200028d620002878462000214565b620001f5565b905082815260208101848484011115620002ac57620002ab6200017a565b5b620002b98482856200024a565b509392505050565b600082601f830112620002d957620002d862000175565b5b8151620002eb84826020860162000276565b91505092915050565b6000602082840312156200030d576200030c6200016b565b5b600082015167ffffffffffffffff8111156200032e576200032d62000170565b5b6200033c84828501620002c1565b91505092915050565b600081519050919050565b7f4e487b7100000000000000000000000000000000000000000000000000000000600052602260045260246000fd5b600060028204905060018216806200039857607f821691505b602082108103620003ae57620003ad62000350565b5b50919050565b60008190508160005260206000209050919050565b60006020601f8301049050919050565b600082821b905092915050565b600060088302620004187fffffffffffffffffffffffffffffffffffffffffffffffffffffffffffffffff82620003d9565b620004248683620003d9565b95508019841693508086168417925050509392505050565b6000819050919050565b6000819050919050565b6000620004716200046b62000465846200043c565b62000446565b6200043c565b9050919050565b6000819050919050565b6200048d8362000450565b620004a56200049c8262000478565b848454620003e6565b825550505050565b600090565b620004bc620004ad565b620004c981848462000482565b505050565b5b81811015620004f157620004e5600082620004b2565b600181019050620004cf565b5050565b601f82111562000540576200050a81620003b4565b6200051584620003c9565b8101602085101562000525578190505b6200053d6200053485620003c9565b830182620004ce565b50505b505050565b600082821c905092915050565b6000620005656000198460080262000545565b1980831691505092915050565b600062000580838362000552565b9150826002028217905092915050565b6200059b8262000345565b67ffffffffffffffff811115620005b757620005b662000190565b5b620005c382546200037f565b620005d0828285620004f5565b600060209050601f831160018114620006085760008415620005f3578287015190505b620005ff858262000572565b8655506200066f565b601f1984166200061886620003b4565b60005b8281101562000642578489015182556001820191506020850194506020810190506200061b565b868310156200066257848901516200065e601f89168262000552565b8355505b6001600288020188555050505b505050505050565b611c2480620006876000396000f3fe608060405234801561001057600080fd5b50600436106100f55760003560e01c80636352211e11610097578063a22cb46511610066578063a22cb46514610286578063b88d4fde146102a2578063c87b56dd146102be578063e985e9c5146102ee576100f5565b80636352211e146101ea5780636e02007d1461021a57806370a082311461023857806395d89b4114610268576100f5565b8063095ea7b3116100d3578063095ea7b31461017857806314f710fe1461019457806323b872dd146101b257806342842e0e146101ce576100f5565b806301ffc9a7146100fa57806306fdde031461012a578063081812fc14610148575b600080fd5b610114600480360381019061010f9190611486565b61031e565b60405161012191906114ce565b60405180910390f35b610132610400565b60405161013f9190611579565b60405180910390f35b610162600480360381019061015d91906115d1565b610492565b60405161016f919061163f565b60405180910390f35b610192600480360381019061018d9190611686565b6104ae565b005b61019c6104c4565b6040516101a991906116d5565b60405180910390f35b6101cc60048036038101906101c791906116f0565b6104f2565b005b6101e860048036038101906101e391906116f0565b6105f4565b005b61020460048036038101906101ff91906115d1565b610614565b604051610211919061163f565b60405180910390f35b610222610626565b60405161022f91906116d5565b60405180910390f35b610252600480360381019061024d9190611743565b610630565b60405161025f91906116d5565b60405180910390f35b6102706106ea565b60405161027d9190611579565b60405180910390f35b6102a0600480360381019061029b919061179c565b61077c565b005b6102bc60048036038101906102b79190611911565b610792565b005b6102d860048036038101906102d391906115d1565b6107af565b6040516102e59190611579565b60405180910390f35b61030860048036038101906103039190611994565b610843565b60405161031591906114ce565b60405180910390f35b60007f80ac58cd000000000000000000000000000000000000000000000000000000007bffffffffffffffffffffffffffffffffffffffffffffffffffffffff1916827bffffffffffffffffffffffffffffffffffffffffffffffffffffffff191614806103e957507f5b5e139f000000000000000000000000000000000000000000000000000000007bffffffffffffffffffffffffffffffffffffffffffffffffffffffff1916827bffffffffffffffffffffffffffffffffffffffffffffffffffffffff1916145b806103f957506103f8826108d7565b5b9050919050565b60606000805461040f90611a03565b80601f016020809104026020016040519081016040528092919081815260200182805461043b90611a03565b80156104885780601f1061045d57610100808354040283529160200191610488565b820191906000526020600020905b81548152906001019060200180831161046b57829003601f168201915b5050505050905090565b600061049d82610941565b506104a7826109c9565b9050919050565b6104c082826104bb610a06565b610a0e565b5050565b60006104d233600654610a20565b600660008154809291906104e590611a63565b9190505550600654905090565b600073ffffffffffffffffffffffffffffffffffffffff168273ffffffffffffffffffffffffffffffffffffffff16036105645760006040517f64a0ae9200000000000000000000000000000000000000000000000000000000815260040161055b919061163f565b60405180910390fd5b60006105788383610573610a06565b610a3e565b90508373ffffffffffffffffffffffffffffffffffffffff168173ffffffffffffffffffffffffffffffffffffffff16146105ee578382826040517f64283d7b0000000000000000000000000000000000000000000000000000000081526004016105e593929190611aab565b60405180910390fd5b50505050565b61060f83838360405180602001604052806000815250610792565b505050565b600061061f82610941565b9050919050565b6000600654905090565b60008073ffffffffffffffffffffffffffffffffffffffff168273ffffffffffffffffffffffffffffffffffffffff16036106a35760006040517f89c62b6400000000000000000000000000000000000000000000000000000000815260040161069a919061163f565b60405180910390fd5b600360008373ffffffffffffffffffffffffffffffffffffffff1673ffffffffffffffffffffffffffffffffffffffff168152602001908152602001600020549050919050565b6060600180546106f990611a03565b80601f016020809104026020016040519081016040528092919081815260200182805461072590611a03565b80156107725780601f1061074757610100808354040283529160200191610772565b820191906000526020600020905b81548152906001019060200180831161075557829003601f168201915b5050505050905090565b61078e610787610a06565b8383610c58565b5050565b61079d8484846104f2565b6107a984848484610dc7565b50505050565b6060600780546107be90611a03565b80601f01602080910402602001604051908101604052809291908181526020018280546107ea90611a03565b80156108375780601f1061080c57610100808354040283529160200191610837565b820191906000526020600020905b81548152906001019060200180831161081a57829003601f168201915b50505050509050919050565b6000600560008473ffffffffffffffffffffffffffffffffffffffff1673ffffffffffffffffffffffffffffffffffffffff16815260200190815260200160002060008373ffffffffffffffffffffffffffffffffffffffff1673ffffffffffffffffffffffffffffffffffffffff16815260200190815260200160002060009054906101000a900460ff16905092915050565b60007f01ffc9a7000000000000000000000000000000000000000000000000000000007bffffffffffffffffffffffffffffffffffffffffffffffffffffffff1916827bffffffffffffffffffffffffffffffffffffffffffffffffffffffff1916149050919050565b60008061094d83610f7e565b9050600073ffffffffffffffffffffffffffffffffffffffff168173ffffffffffffffffffffffffffffffffffffffff16036109c057826040517f7e2732890000000000000000000000000000000000000000000000000000000081526004016109b791906116d5565b60405180910390fd5b80915050919050565b60006004600083815260200190815260200160002060009054906101000a900473ffffffffffffffffffffffffffffffffffffffff169050919050565b600033905090565b610a1b8383836001610fbb565b505050565b610a3a828260405180602001604052806000815250611180565b5050565b600080610a4a84610f7e565b9050600073ffffffffffffffffffffffffffffffffffffffff168373ffffffffffffffffffffffffffffffffffffffff1614610a8c57610a8b81848661119c565b5b600073ffffffffffffffffffffffffffffffffffffffff168173ffffffffffffffffffffffffffffffffffffffff1614610b1d57610ace600085600080610fbb565b6001600360008373ffffffffffffffffffffffffffffffffffffffff1673ffffffffffffffffffffffffffffffffffffffff168152602001908152602001600020600082825403925050819055505b600073ffffffffffffffffffffffffffffffffffffffff168573ffffffffffffffffffffffffffffffffffffffff1614610ba0576001600360008773ffffffffffffffffffffffffffffffffffffffff1673ffffffffffffffffffffffffffffffffffffffff168152602001908152602001600020600082825401925050819055505b846002600086815260200190815260200160002060006101000a81548173ffffffffffffffffffffffffffffffffffffffff021916908373ffffffffffffffffffffffffffffffffffffffff160217905550838573ffffffffffffffffffffffffffffffffffffffff168273ffffffffffffffffffffffffffffffffffffffff167fddf252ad1be2c89b69c2b068fc378daa952ba7f163c4a11628f55a4df523b3ef60405160405180910390a4809150509392505050565b600073ffffffffffffffffffffffffffffffffffffffff168273ffffffffffffffffffffffffffffffffffffffff1603610cc957816040517f5b08ba18000000000000000000000000000000000000000000000000000000008152600401610cc0919061163f565b60405180910390fd5b80600560008573ffffffffffffffffffffffffffffffffffffffff1673ffffffffffffffffffffffffffffffffffffffff16815260200190815260200160002060008473ffffffffffffffffffffffffffffffffffffffff1673ffffffffffffffffffffffffffffffffffffffff16815260200190815260200160002060006101000a81548160ff0219169083151502179055508173ffffffffffffffffffffffffffffffffffffffff168373ffffffffffffffffffffffffffffffffffffffff167f17307eab39ab6107e8899845ad3d59bd9653f200f220920489ca2b5937696c3183604051610dba91906114ce565b60405180910390a3505050565b60008373ffffffffffffffffffffffffffffffffffffffff163b1115610f78578273ffffffffffffffffffffffffffffffffffffffff1663150b7a02610e0b610a06565b8685856040518563ffffffff1660e01b8152600401610e2d9493929190611b37565b6020604051808303816000875af1925050508015610e6957506040513d601f19601f82011682018060405250810190610e669190611b98565b60015b610eed573d8060008114610e99576040519150601f19603f3d011682016040523d82523d6000602084013e610e9e565b606091505b506000815103610ee557836040517f64a0ae92000000000000000000000000000000000000000000000000000000008152600401610edc919061163f565b60405180910390fd5b805181602001fd5b63150b7a0260e01b7bffffffffffffffffffffffffffffffffffffffffffffffffffffffff1916817bffffffffffffffffffffffffffffffffffffffffffffffffffffffff191614610f7657836040517f64a0ae92000000000000000000000000000000000000000000000000000000008152600401610f6d919061163f565b60405180910390fd5b505b50505050565b60006002600083815260200190815260200160002060009054906101000a900473ffffffffffffffffffffffffffffffffffffffff169050919050565b8080610ff45750600073ffffffffffffffffffffffffffffffffffffffff168273ffffffffffffffffffffffffffffffffffffffff1614155b1561112857600061100484610941565b9050600073ffffffffffffffffffffffffffffffffffffffff168373ffffffffffffffffffffffffffffffffffffffff161415801561106f57508273ffffffffffffffffffffffffffffffffffffffff168173ffffffffffffffffffffffffffffffffffffffff1614155b801561108257506110808184610843565b155b156110c457826040517fa9fbf51f0000000000000000000000000000000000000000000000000000000081526004016110bb919061163f565b60405180910390fd5b811561112657838573ffffffffffffffffffffffffffffffffffffffff168273ffffffffffffffffffffffffffffffffffffffff167f8c5be1e5ebec7d5bd14f71427d1e84f3dd0314c0f7b2291e5b200ac8c7c3b92560405160405180910390a45b505b836004600085815260200190815260200160002060006101000a81548173ffffffffffffffffffffffffffffffffffffffff021916908373ffffffffffffffffffffffffffffffffffffffff16021790555050505050565b61118a8383611260565b6111976000848484610dc7565b505050565b6111a7838383611359565b61125b57600073ffffffffffffffffffffffffffffffffffffffff168373ffffffffffffffffffffffffffffffffffffffff160361121c57806040517f7e27328900000000000000000000000000000000000000000000000000000000815260040161121391906116d5565b60405180910390fd5b81816040517f177e802f000000000000000000000000000000000000000000000000000000008152600401611252929190611bc5565b60405180910390fd5b505050565b600073ffffffffffffffffffffffffffffffffffffffff168273ffffffffffffffffffffffffffffffffffffffff16036112d25760006040517f64a0ae920000000000000000000000000000000000000000000000000000000081526004016112c9919061163f565b60405180910390fd5b60006112e083836000610a3e565b9050600073ffffffffffffffffffffffffffffffffffffffff168173ffffffffffffffffffffffffffffffffffffffff16146113545760006040517f73c6ac6e00000000000000000000000000000000000000000000000000000000815260040161134b919061163f565b60405180910390fd5b505050565b60008073ffffffffffffffffffffffffffffffffffffffff168373ffffffffffffffffffffffffffffffffffffffff161415801561141157508273ffffffffffffffffffffffffffffffffffffffff168473ffffffffffffffffffffffffffffffffffffffff1614806113d257506113d18484610843565b5b8061141057508273ffffffffffffffffffffffffffffffffffffffff166113f8836109c9565b73ffffffffffffffffffffffffffffffffffffffff16145b5b90509392505050565b6000604051905090565b600080fd5b600080fd5b60007fffffffff0000000000000000000000000000000000000000000000000000000082169050919050565b6114638161142e565b811461146e57600080fd5b50565b6000813590506114808161145a565b92915050565b60006020828403121561149c5761149b611424565b5b60006114aa84828501611471565b91505092915050565b60008115159050919050565b6114c8816114b3565b82525050565b60006020820190506114e360008301846114bf565b92915050565b600081519050919050565b600082825260208201905092915050565b60005b83811015611523578082015181840152602081019050611508565b60008484015250505050565b6000601f19601f8301169050919050565b600061154b826114e9565b61155581856114f4565b9350611565818560208601611505565b61156e8161152f565b840191505092915050565b600060208201905081810360008301526115938184611540565b905092915050565b6000819050919050565b6115ae8161159b565b81146115b957600080fd5b50565b6000813590506115cb816115a5565b92915050565b6000602082840312156115e7576115e6611424565b5b60006115f5848285016115bc565b91505092915050565b600073ffffffffffffffffffffffffffffffffffffffff82169050919050565b6000611629826115fe565b9050919050565b6116398161161e565b82525050565b60006020820190506116546000830184611630565b92915050565b6116638161161e565b811461166e57600080fd5b50565b6000813590506116808161165a565b92915050565b6000806040838503121561169d5761169c611424565b5b60006116ab85828601611671565b92505060206116bc858286016115bc565b9150509250929050565b6116cf8161159b565b82525050565b60006020820190506116ea60008301846116c6565b92915050565b60008060006060848603121561170957611708611424565b5b600061171786828701611671565b935050602061172886828701611671565b9250506040611739868287016115bc565b9150509250925092565b60006020828403121561175957611758611424565b5b600061176784828501611671565b91505092915050565b611779816114b3565b811461178457600080fd5b50565b60008135905061179681611770565b92915050565b600080604083850312156117b3576117b2611424565b5b60006117c185828601611671565b92505060206117d285828601611787565b9150509250929050565b600080fd5b600080fd5b7f4e487b7100000000000000000000000000000000000000000000000000000000600052604160045260246000fd5b61181e8261152f565b810181811067ffffffffffffffff8211171561183d5761183c6117e6565b5b80604052505050565b600061185061141a565b905061185c8282611815565b919050565b600067ffffffffffffffff82111561187c5761187b6117e6565b5b6118858261152f565b9050602081019050919050565b82818337600083830152505050565b60006118b46118af84611861565b611846565b9050828152602081018484840111156118d0576118cf6117e1565b5b6118db848285611892565b509392505050565b600082601f8301126118f8576118f76117dc565b5b81356119088482602086016118a1565b91505092915050565b6000806000806080858703121561192b5761192a611424565b5b600061193987828801611671565b945050602061194a87828801611671565b935050604061195b878288016115bc565b925050606085013567ffffffffffffffff81111561197c5761197b611429565b5b611988878288016118e3565b91505092959194509250565b600080604083850312156119ab576119aa611424565b5b60006119b985828601611671565b92505060206119ca85828601611671565b9150509250929050565b7f4e487b7100000000000000000000000000000000000000000000000000000000600052602260045260246000fd5b60006002820490506001821680611a1b57607f821691505b602082108103611a2e57611a2d6119d4565b5b50919050565b7f4e487b7100000000000000000000000000000000000000000000000000000000600052601160045260246000fd5b6000611a6e8261159b565b91507fffffffffffffffffffffffffffffffffffffffffffffffffffffffffffffffff8203611aa057611a9f611a34565b5b600182019050919050565b6000606082019050611ac06000830186611630565b611acd60208301856116c6565b611ada6040830184611630565b949350505050565b600081519050919050565b600082825260208201905092915050565b6000611b0982611ae2565b611b138185611aed565b9350611b23818560208601611505565b611b2c8161152f565b840191505092915050565b6000608082019050611b4c6000830187611630565b611b596020830186611630565b611b6660408301856116c6565b8181036060830152611b788184611afe565b905095945050505050565b600081519050611b928161145a565b92915050565b600060208284031215611bae57611bad611424565b5b6000611bbc84828501611b83565b91505092915050565b6000604082019050611bda6000830185611630565b611be760208301846116c6565b939250505056fea2646970667358221220cd39746ccedded4da971182439cb19ee2163ef70aa984f1f01d9249c6847403264736f6c63430008180033",
  "linkReferences": {},
  "deployedLinkReferences": {}
}